:100000000C94C7000C94E6000C94E6000C94E600F7
:100010000C94E6000C94E6000C94E6000C94E600C8
:100020000C94E6000C94E6000C94E6000C94E600B8
:100030000C94E6000C94E6000C94E6000C94E600A8
:100040000C94E6000C94E6000C94E6000C94E60098
:100050000C94E6000C94E6000C94E6000C94E60088
:100060000C94E6000C94E6000C94E6000C94E60078
:100070000C94E6000C94E6000C94E6000C94E60068
:100080000C94E6000C94E6000C94E6006E616E00A1
:10009000696E660000407A10F35A00A0724E18098B
:1000A0000010A5D4E80000E87648170000E40B54DF
:1000B000020000CA9A3B000000E1F50500008096AE
:1000C0009800000040420F000000A08601000000E0
:1000D000102700000000E80300000000640000009A
:1000E00000000A00000000000100000000002C7663
:1000F000D888DC674F0823DFC1DFAE59E1B1B7967E
:10010000E5E3E453C63AE651997696E8E6C28426DA
:10011000EB898C9B62ED407C6FFCEFBC9C9F40F2B6
:10012000BAA56FA5F490055A2AF75C936B6CF96732
:100130006DC11BFCE0E40D47FEF520E6B500D0EDF7
:10014000902E0300943577050080841E080000205F
:100150004E0A000000C80C333333330F986E1283FD
:100160001141EF8D2114893BE65516CFFEE6DB18D1
:10017000D1844B381BF77C1D901DA4BBE424203296
:1001800084725E228100C9F124ECA1E53D2711248F
:100190001FBECFEFD0E1DEBFCDBF12E0A0E0B1E0E7
:1001A000E2E6FAE200E00BBF02C007900D92A03534
:1001B000B107D9F716E0A0E5B2E001C01D92A03862
:1001C000B107E1F70E94A8090C942F150C940000C8
:1001D00015BE10926D0010926C008FEF8ABB1BBA97
:1001E00017BA18BA83EF84BB80EF85BB11BA12BA75
:1001F00088EF82B913B8109261001092620087E014
:100200008093640010926500089590E003C00F92FF
:100210000F909F5F9817D8F3089540E050E01AC000
:1002200020E00F920F902F5F2A3FD9F720E00F9226
:100230000F902F5F2A3FD9F720E00F920F902F5F8A
:100240002A3FD9F720E00F920F902F5F2A3FD9F76E
:100250004F5F5F4F4817590718F30895482F809153
:1002600065008160809365000F920F90809164001B
:1002700084608093640091E020E030E0892F842343
:1002800021F080916500846003C0809165008B7FC0
:1002900080936500809165008260809365000F9275
:1002A0000F900F920F90809165008D7F8093650075
:1002B0000F920F90990F2F5F3F4F28303105F1F6C5
:1002C00091E020E030E0892F862321F080916500C5
:1002D000846003C0809165008B7F8093650080916E
:1002E00065008260809365000F920F900F920F90CF
:1002F000809165008D7F809365000F920F90990F1C
:100300002F5F3F4F28303105F1F6809165008E7FD9
:10031000809365000895482F8091650081608093E7
:1003200065000F920F908091640084608093640058
:1003300091E020E030E0892F842321F08091650056
:10034000846003C0809165008B7F809365008091FD
:1003500065008260809365000F920F900F920F905E
:10036000809165008D7F809365000F920F90990FAB
:100370002F5F3F4F28303105F1F6809164008B7F6D
:100380008093640091E040E020E030E080916300E1
:1003900082FD492B809165008260809365000F92F9
:1003A0000F900F920F90809165008D7F8093650074
:1003B0000F920F90990F2F5F3F4F2830310531F783
:1003C000809165008E7F80936500842F0895982F1B
:1003D000F894809178068A3098F48F5F809378063D
:1003E00080917906E82FF0E0EF59FB4F90838F5F03
:1003F000809379068A3010F01092790678940895E7
:1004000078940895F89480917806882399F0815023
:100410008093780680915C04E82FF0E0EF59FB4F61
:10042000E0818F5F80935C048A3010F010925C044E
:10043000789402C07894EFEF8E2F089502C00E9446
:100440000202F8947894809178068823C1F7089581
:10045000F894789420915F043091600484E190E0F6
:10046000AC01249FC001259F900D349F900D112455
:10047000BC0180E090E00895F8947894809178062B
:10048000811181E0089581E080935D0410927806E7
:100490001092600410925F041092790610925C042E
:1004A000089586B3807F803F11F480E00895F8942A
:1004B00080915F0490916004019690936004809312
:1004C0005F04789481E008950E945102482F26B37A
:1004D000207F209530E090E104C03F5F343021F070
:1004E000990F892F8223C9F380E090E0442311F40F
:1004F00081E090E0880F991F880F991F830F08955E
:1005000080915D048230C9F0833020F4813009F09D
:1005100055C006C0833001F1843009F04FC036C0A9
:100520000E945102882309F449C082E080935D044F
:100530001092600410925F0408950E945102882373
:1005400049F00E9464020E94E70182E380937706EB
:1005500083E019C081E017C00E945102882391F006
:1005600080917706882351F1815080937706882304
:1005700029F50E9464020E94E7018AE080935E04EC
:1005800084E001C082E080935D0408950E945102DE
:10059000882389F080915E04882381F081508093C4
:1005A0005E04882359F40E9464020E94E7018AE0F5
:1005B00080935E04089582E080935D040895089519
:1005C000A898A9988BBBA89A0F920F90A89880E042
:1005D0000F920F908F5F8233D9F70895A898A99A48
:1005E0008BBBA89A0F920F90A89880E00F920F9063
:1005F0008F5F8233D9F70895CF93DF93EB010E9489
:10060000E00203C00E94EE02219688818823D1F780
:10061000DF91CF91089588E30E94E0028CE00E9470
:10062000E00286E00E94E00281E00E94E00282E0B7
:1006300090E00E940D010895CF93DF93EC016AE0F2
:1006400070E00E942513CB016115710511F480E261
:1006500001C0805D0E94EE02CE016AE070E00E945F
:100660002513805D0E94EE02DF91CF910895CF9314
:10067000DF93EC0134E0969587953A95E1F78F701A
:1006800090708A30910510F4805D01C0895C0E94F1
:10069000EE02CE018F7090708A30910510F4805D6B
:1006A00001C0895C0E94EE02DF91CF910895EF9224
:1006B000FF920F931F939F772AE037ED43EA5BE3A6
:1006C0000E94540B20E030E048EC52E40E94810B81
:1006D0000E94850D7B018C01CB0164E670E00E94D5
:1006E0003913862F805D0E94EE028EE20E94EE0298
:1006F000C70164E670E00E943913182F092F6AE0E1
:1007000070E00E943913862F805D0E94EE02812FD7
:10071000902F6AE070E00E943913805D0E94EE0223
:100720001F910F91FF90EF900895AF92BF92CF92DB
:10073000DF92EF92FF920F931F935B016C0120E019
:1007400030E040E251E40E947B0C0E94850D7B0169
:100750008C01862F805D0E94EE029701B70153E065
:10076000660F771F5A95E1F7220F331F620F731F31
:10077000882777FD8095982F0E94270D9B01AC015B
:10078000C601B5010E94230B0E94850DDC01CB013F
:10079000805D0E94EE028EE20E94EE02C601B5016B
:1007A0000E94850D882777FD8095982F0E94270D40
:1007B0009B01AC01C601B5010E94230B20E030E093
:1007C00040E251E40E94810B0E94850DDC01CB01C7
:1007D000805D0E94EE021F910F91FF90EF90DF90DD
:1007E000CF90BF90AF9008950F931F93CF93DF9357
:1007F000EC0164E670E00E942513CB0161157105E0
:1008000031F480E20E94EE0220E030E005C0805D1D
:100810000E94EE0221E030E0CE0164E670E00E942A
:100820002513182F092F6AE070E00E942513CB01D1
:100830006115710521F4232B11F480E201C0805D64
:100840000E94EE02812F902F6AE070E00E94251333
:10085000805D0E94EE02DF91CF911F910F9108956C
:100860000F931F93CF93DF938C0168EE73E00E9488
:100870002513CB016115710531F480E20E94EE026F
:10088000C0E0D0E005C0805D0E94EE02C1E0D0E093
:10089000C80168EE73E00E942513182F092F64E643
:1008A00070E00E942513CB016115710531F420978A
:1008B00021F480E20E94EE0205C0805D0E94EE02FB
:1008C000C1E0D0E0812F902F64E670E00E942513F4
:1008D000182F092F6AE070E00E942513CB016115E3
:1008E000710521F4CD2B11F480E201C0805D0E94DE
:1008F000EE02812F902F6AE070E00E942513805D48
:100900000E94EE02DF91CF911F910F910895EF9217
:10091000FF920F931F93CF93DF93EC0197FF05C0D6
:10092000D095C195DF4F8DE205C0009711F480E2AC
:1009300001C08BE20E94EE02CE0168EE73E00E94DD
:100940003913CB016115710531F480E20E94EE028A
:1009500000E010E005C0805D0E94EE0201E010E0C2
:10096000CE0168EE73E00E943913F82EE92E64E69A
:1009700070E00E943913CB016115710539F401153E
:10098000110521F480E20E94EE0205C0805D0E9404
:10099000EE0201E010E08F2D9E2D64E670E00E94D3
:1009A0003913F82EE92E6AE070E00E943913CB016A
:1009B0006115710521F4012B11F480E201C0805D05
:1009C0000E94EE028F2D9E2D6AE070E00E94391386
:1009D000805D0E94EE02DF91CF911F910F91FF90F9
:1009E000EF900895CF93DF93EC01892F992782959B
:1009F0008F708A30910510F4805D01C0895C0E947F
:100A0000EE028D2F99278F7090708A30910510F427
:100A1000805D01C0895C0E94EE02CE0164E0969583
:100A200087956A95E1F78F7090708A30910510F480
:100A3000805D01C0895C0E94EE02CE018F709070D3
:100A40008A30910510F4805D01C0895C0E94EE023D
:100A5000DF91CF910895EF92FF920F931F93CF9361
:100A6000DF9320E030E040E251E40E94810B20E07F
:100A700030E040E05FE30E94540B0E94850DDC01F2
:100A8000CB01EC0160E177E20E942513CB016115F7
:100A9000710531F480E20E94EE0200E010E005C032
:100AA000805D0E94EE0201E010E0CE0160E177E29D
:100AB0000E942513F82EE92E68EE73E00E9425139C
:100AC000CB016115710539F40115110521F480E29E
:100AD0000E94EE0205C0805D0E94EE0201E010E07F
:100AE0008F2D9E2D68EE73E00E942513F82EE92EBF
:100AF00064E670E00E942513CB016115710521F4B5
:100B0000012B11F480E201C0805D0E94EE028F2D66
:100B10009E2D64E670E00E942513182F092F6AE0CD
:100B200070E00E942513862F805D0E94EE028EE207
:100B30000E94EE02812F902F6AE070E00E94251340
:100B4000805D0E94EE02DF91CF911F910F91FF9087
:100B5000EF900895EF92FF920F931F93CF93DF933F
:100B60007B018C0120EA36E841E050E00E944C1302
:100B7000822F232B31F480E20E94EE02C0E0D0E00D
:100B800005C0805D0E94EE02C1E0D0E0C801B7015F
:100B900020EA36E841E050E00E944C13162F072F60
:100BA000F82EE92E20E137E240E050E00E944C139D
:100BB000822F232B31F4209721F480E20E94EE0251
:100BC00005C0805D0E94EE02C1E0D0E0612F702F71
:100BD0008F2D9E2D20E137E240E050E00E944C1323
:100BE000162F072FF82EE92E28EE33E040E050E0D4
:100BF0000E944C13822F232B31F4209721F480E2A2
:100C00000E94EE0205C0805D0E94EE02C1E0D0E0CD
:100C1000612F702F8F2D9E2D28EE33E040E050E0A5
:100C20000E944C13162F072FF82EE92E24E630E0F1
:100C300040E050E00E944C13822F232B31F4209788
:100C400021F480E20E94EE0205C0805D0E94EE0267
:100C5000C1E0D0E0612F702F8F2D9E2D24E630E073
:100C600040E050E00E944C13162F072FF82EE92E7B
:100C70002AE030E040E050E00E944C13822F232B0A
:100C800021F4CD2B11F480E201C0805D0E94EE02C0
:100C9000612F702F8F2D9E2D2AE030E040E050E034
:100CA0000E944C13862F805D0E94EE02DF91CF914F
:100CB0001F910F91FF90EF9008958FB9779BFECF12
:100CC0008FB10895282FC09883E08FB9779BFECF0E
:100CD0008FB19FB9779BFECF8FB12FB9779BFECF96
:100CE0008FB18AEA8FB9779BFECF8FB1C09A0895F2
:100CF000C09886E08FB9779BFECF8FB1C09A0895D8
:100D0000C09884E08FB9779BFECF8FB1C09A0895C9
:100D1000C09885E08FB9779BFECF8FB18AEA8FB9F3
:100D2000779BFECF8FB1C09A08959C013695322FE4
:100D3000222737952795C09882E08FB9779BFECF01
:100D40008FB13FB9779BFECF8FB12FB9779BFECF85
:100D50008FB120E030E0FB01E20FF31F80818FB9FB
:100D6000779BFECF8FB12E5F3F4F81E02030380759
:100D700091F7C09A0E94880680FDFCCF0895282F25
:100D8000C09882E08FB9779BFECF8FB19FB9779BD8
:100D9000FECF8FB12FB9779BFECF8FB16FB9779B05
:100DA000FECF8FB1C09A0E94880680FDFCCF0895C7
:100DB000982FC09881E08FB9779BFECF8FB19FB9F4
:100DC000779BFECF8FB1C09A0E94880680FDFCCF32
:100DD00008950E94880680FDFCCF0E94780680E07E
:100DE0000E94D80608958AE0089580E10895CF937F
:100DF000DF93EB01813039F0823019F4A0E5B2E0E5
:100E000004C081E027C0ABE6B4E0F8948D919C91DA
:100E100011970097E9F0019711969C938E93149681
:100E2000ED91FC91159741911596FC93EE931497D3
:100E30009D012A5F3F4FCD018A5F9E4FE817F9075A
:100E400021F415963C932E9314977894188204C03D
:100E5000789482E0888340E0842FDF91CF910895D9
:100E6000CF93DF93EB01813039F0823019F420E524
:100E700032E004C081E023C02BE634E0F901EA5FF0
:100E8000FE4F808191810097C9F001979183808303
:100E9000D901A65FBE4FED91FC91119781911196FA
:100EA000FC93EE93A901445F5E4F245F3D4FE21730
:100EB000F30711F44D935C93188203C084E0888398
:100EC00080E0DF91CF910895DF93CF930F92CDB75C
:100ED000DEB7813019F0823029F50FC05D9B22C04A
:100EE000569A81E0BE016F5F7F4F0E943007982FB6
:100EF00089818430B9F09CB915C080919B0085FF31
:100F000011C080919A00806480939A0082E0BE01B3
:100F10006F5F7F4F0E943007982F8981843011F0D6
:100F200090939C000F90CF91DF91089510926C04E4
:100F300010926B0481E794E090936E0480936D04AB
:100F40009093700480936F04109272051092710553
:100F500087E795E0909374058093730590937605E9
:100F600080937505109251021092500286E592E02E
:100F700090935302809352029093550280935402AF
:100F800010925703109256038CE593E09093590307
:100F90008093580390935B0380935A0308958130A4
:100FA00039F0823011F021E00DC0E0E5F2E002C03E
:100FB000EBE6F4E0F89420E080819181892B09F43C
:100FC00021E07894822F0895813039F0823011F039
:100FD00021E011C0E0E5F2E002C0EBE6F4E0F894B5
:100FE00020E0EA5FFE4F808191818F3F910511F0F3
:100FF00008F021E07894822F0895CF93DF93482F53
:10100000813039F0823011F081E035C0A0E5B2E0E6
:1010100002C0ABE6B4E0F894FD01EA5FFE4F8081C8
:1010200091818F3F910509F020F50196918380838E
:10103000ED01C85FDE4FE881F9816193F983E883B0
:101040009D01245F3E4FCD01845F9D4FE817F90756
:1010500011F439832883AA5FBE4F8D919C9101972B
:1010600029F4842F0E946407789401C0789480E06A
:1010700002C0789483E0DF91CF910895CF93DF93FE
:10108000EC0104C081E00E94FD072196688166237F
:10109000C9F781E06DE00E94FD0781E06AE00E94EF
:1010A000FD07DF91CF9108958F929F92AF92BF92EB
:1010B000CF92DF92EF92FF920F931F93DF93CF9324
:1010C000CDB7DEB7C158D0400FB6F894DEBF0FBE23
:1010D000CDBF00E011E005C082E00E94FD070F5F78
:1010E0001F4FF80160816623B9F782E06DE00E942E
:1010F000FD0784EF91E00E940D0192E0C92ED12CF2
:10110000CC0EDD1E7601CE018E579F4FF701119256
:101110007F01E817F907D1F700E010E04E010894CD
:10112000811C911C82E0A82EB12CAC0EBD1E82E069
:101130000E94CF07813079F082E0B4010E94F70667
:10114000982F8981882399F7F501E00FF11F90838B
:101150000F5F1F4FECCF0038110514F00FE710E0C0
:10116000CE010296080F191FF80110820E943E0856
:1011700003E011E005C082E00E94FD070F5F1F4FF2
:10118000F80160816623B9F782E06DE00E94FD07F7
:1011900084EF91E00E940D01F6011192EE15FF051A
:1011A000E1F700E010E04E010894811C911CB2E0D0
:1011B000AB2EB12CAC0EBD1E82E00E94CF07813059
:1011C00079F082E0B4010E94F706982F8981882384
:1011D00099F7F501E00FF11F90830F5F1F4FECCFE0
:1011E0000038110514F00FE710E0CE010296080F49
:1011F000191FF80110820E943E080EE011E005C0A0
:1012000082E00E94FD070F5F1F4FF8016081662397
:10121000B9F782E06DE00E94FD0784EF91E00E9443
:101220000D01F60111926F01EE15FF05D1F700E0F7
:1012300010E06E010894C11CD11CA2E0EA2EF12C32
:10124000EC0EFD1E82E00E94CF07813079F082E033
:10125000B6010E94F706982F8981882399F7F70134
:10126000E00FF11F90830F5F1F4FECCF0038110587
:1012700014F00FE710E0CE010296080F191FF801D5
:1012800010820E943E08CF57DF4F0FB6F894DEBFA2
:101290000FBECDBFCF91DF911F910F91FF90EF90C7
:1012A000DF90CF90BF90AF909F908F900895813046
:1012B00029F0823031F5A0E5B2E002C0ABE6B4E03F
:1012C0008D919C9111978F3F910509F0D0F4019673
:1012D00011969C938E931296ED91FC9113976193C6
:1012E0001396FC93EE9312979D012A5F3F4FCD0119
:1012F0008A5F9E4FE817F90721F413963C932E93CB
:1013000012970895A898A99A8BBBA89A0F920F904C
:10131000A89880E00F920F908F5F8233D9F70895DD
:10132000982F80528F3518F4892F0E94820980E00F
:1013300090E00895882329F4862F80580E94E002C7
:101340000895813021F4862F80540E94E002089590
:101350000E94E8008AE391E090937D0680937C06EA
:101360008CE291E00E940D010E940B0380E060E09E
:101370000E949A0900D088E191E0EDB7FEB7928310
:1013800081830E94BF140F900F9081E060E00E9463
:101390009A0900D089E291E0EDB7FEB7928381838C
:1013A0000E94BF140F900F9080E090E00895A0E09D
:1013B000B0E0EDEDF9E00C946E13DC012B01FA01C5
:1013C0009C91923008F439C1EB018881823008F495
:1013D00033C1943069F4843009F02FC111969C9187
:1013E00011978981981709F428C1A8E4B1E025C1B3
:1013F000843009F421C18230A9F4923009F01DC172
:101400009A01AD0188E0EA010990AE01E901099273
:101410009E018150C1F7E201898111969C91892337
:10142000818308C1923009F407C112962D903C9037
:101430001397EB018A819B811496AD90BD90CD905E
:10144000DC901797EC80FD800E811F819101281B95
:10145000390BB90137FF04C066277727621B730B6E
:10146000603271050CF061C0121613066CF537017D
:101470004801062E04C096948794779467940A9442
:10148000D2F721E030E040E050E004C0220F331FEB
:10149000441F551F6A95D2F72150304040405040BC
:1014A0002E213F21402351232115310541055105AE
:1014B00021F021E030E040E050E079018A01E628A7
:1014C000F728082919293CC0232BD1F1260E371EF5
:1014D00035014601062E04C096948794779467944C
:1014E0000A94D2F721E030E040E050E004C0220F3F
:1014F000331F441F551F6A95D2F72150304040409A
:1015000050402A213B214C215D2121153105410507
:10151000510521F021E030E040E050E059016A013E
:10152000A628B728C828D9280BC0821593052CF007
:101530001C01AA24BB24650103C0EE24FF248701FB
:1015400011969C91D20111968C91981709F445C07F
:10155000992339F0A80197012A193B094C095D0923
:1015600006C0A60195012E193F09400B510B57FDEE
:1015700008C01182338222822483358346835783B5
:101580001DC081E081833382228288279927DC0174
:10159000821B930BA40BB50B84839583A683B7831F
:1015A0000DC0220F331F441F551F248335834683EC
:1015B000578382819381019793838283248135812C
:1015C00046815781DA01C9010197A109B1098F5FED
:1015D0009F4FAF4FBF4328F30BC0918333822282CA
:1015E000EA0CFB1C0C1D1D1DE482F582068317838B
:1015F00083E08083248135814681578157FF1AC05B
:10160000C901AA2797FDA095BA2F81709070A0708C
:10161000B0705695479537952795822B932BA42B21
:10162000B52B84839583A683B783828193810196AA
:1016300093838283DF0101C0D201CD01CDB7DEB734
:10164000E2E10C948A13A0E2B0E0E9E2FBE00C9442
:101650007A1369837A838B839C832D833E834F83A4
:101660005887E9E0EE2EF12CEC0EFD1ECE0101961E
:10167000B7010E94FD0E8E010F5E1F4FCE01059631
:10168000B8010E94FD0E8A8991E089278A8BC701E3
:10169000B801AE01475E5F4F0E94D7090E94280E35
:1016A000A096E6E00C949613A0E2B0E0EAE5FBE039
:1016B0000C947A1369837A838B839C832D833E8376
:1016C0004F835887F9E0EF2EF12CEC0EFD1ECE0172
:1016D0000196B7010E94FD0E8E010F5E1F4FCE01D5
:1016E0000596B8010E94FD0EC701B801AE01475E24
:1016F0005F4F0E94D7090E94280EA096E6E00C9446
:101700009613A0E2B0E0E7E8FBE00C946E13698367
:101710007A838B839C832D833E834F835887CE01AE
:101720000196BE01675F7F4F0E94FD0ECE010596B8
:10173000BE016F5E7F4F0E94FD0E9985923088F04A
:1017400089898230C8F0943019F4823051F404C091
:10175000843029F4923081F488E491E0C6C092305C
:1017600049F420E09A858A89981321E02A87CE01DE
:101770000996BBC0823049F420E09A858A89981383
:1017800021E02A8BCE014196B0C02D843E844F8447
:1017900058886D887E888F88988CEE24FF24870176
:1017A000AA24BB24650140E050E060E070E0E0E086
:1017B000F0E0C10181709070892BE9F0E60CF71C14
:1017C000081D191D9A01AB012A0D3B1D4C1D5D1D05
:1017D00080E090E0A0E0B0E0E614F7040805190509
:1017E00020F481E090E0A0E0B0E0BA01A901480F48
:1017F000591F6A1F7B1FAA0CBB1CCC1CDD1C97FE4B
:1018000008C081E090E0A0E0B0E0A82AB92ACA2A86
:10181000DB2A3196E032F10549F0660C771C881C12
:10182000991C5694479437942794C3CFFA85EA8934
:101830002B893C898B859C85280F391F2E5F3F4F54
:1018400017C0CA0181709070892B61F016950795B9
:10185000F794E79480E090E0A0E0B0E8E82AF92A65
:101860000A2B1B2B76956795579547952F5F3F4F12
:1018700077FDE7CF0CC0440F551F661F771F17FD7C
:101880004160EE0CFF1C001F111F21503040403002
:1018900090E0590790E0690790E4790760F32B8F97
:1018A0003C8FDB01CA018F779070A070B0708034DC
:1018B0009105A105B10561F447FD0AC0E114F104E9
:1018C0000105110529F0405C5F4F6F4F7F4F407855
:1018D0001A8EFE1711F081E08A8F4D8F5E8F6F8F09
:1018E00078A383E0898FCE0149960E94280EA096A6
:1018F000E2E10C948A13A8E1B0E0E1E8FCE00C948A
:10190000761369837A838B839C832D833E834F83F5
:101910005887B9E0EB2EF12CEC0EFD1ECE0101969E
:10192000B7010E94FD0E8E010F5E1F4FCE0105967E
:10193000B8010E94FD0E2985223008F47EC0398945
:10194000323010F4B8017CC08A859A8989278A8749
:10195000243011F0223031F4231709F06EC068E40E
:1019600071E06EC0343039F41D861E861F86188AD9
:101970001C861B8604C0323021F484E08987B701BD
:101980005FC02B853C858B899C89281B390B3C8744
:101990002B87ED84FE840F851889AD88BE88CF889B
:1019A000D88CEA14FB040C051D0540F4EE0CFF1C5A
:1019B000001F111F215030403C872B8720E030E072
:1019C00040E050E080E090E0A0E0B0E460E070E053
:1019D000EA14FB040C051D0540F0282B392B4A2B7B
:1019E0005B2BEA18FB080C091D09B695A79597957E
:1019F0008795EE0CFF1C001F111F6F5F7F4F6F312B
:101A0000710531F7DA01C9018F779070A070B0705D
:101A100080349105A105B10561F427FD0AC0E114E8
:101A2000F1040105110529F0205C3F4F4F4F5F4F36
:101A300020782D873E874F87588BBE01675F7F4F89
:101A4000CB010E94280E6896EAE00C949213A8E05D
:101A5000B0E0EDE2FDE00C9477139B01AC0183E074
:101A60008983DA01C9018827B7FD83959927AA27B9
:101A7000BB27B82E211531054105510519F482E027
:101A800089833AC08823A9F0203080E0380780E0BD
:101A9000480780E8580729F460E070E080E09FEC98
:101AA00030C0EE24FF248701E21AF30A040B150B61
:101AB00002C079018A018EE1C82ED12CDC82CB8252
:101AC000ED82FE820F831887C801B7010E94D90DED
:101AD00001971816190684F4082E04C0EE0CFF1C9A
:101AE000001F111F0A94D2F7ED82FE820F83188720
:101AF000C81AD90ADC82CB82BA82CE0101960E9432
:101B0000280E2896E9E00C949313ACE0B0E0EBE8E3
:101B1000FDE00C947E1369837A838B839C83CE01D2
:101B20000196BE016B5F7F4F0E94FD0E8D8182305A
:101B300061F1823050F1843021F48E81882351F19B
:101B40002EC02F81388537FD20C06E812F313105A1
:101B50001CF06623F9F023C08EE190E0821B930B0A
:101B600029853A854B855C8504C056954795379500
:101B700027958A95D2F76623B1F050954095309518
:101B800021953F4F4F4F5F4F0EC020E030E040E0C7
:101B900050E009C02FEF3FEF4FEF5FE704C020E0B8
:101BA00030E040E050E8B901CA012C96E2E00C9424
:101BB0009A13EF92FF920F931F937B018C0180E0A9
:101BC000E81680E0F80681E0080780E0180788F44E
:101BD0008FEFE816F1040105110531F028F088E0D7
:101BE00090E0A0E0B0E017C080E090E0A0E0B0E0BE
:101BF00012C080E0E81680E0F80680E0080781E087
:101C0000180728F088E190E0A0E0B0E004C080E18F
:101C100090E0A0E0B0E020E230E040E050E0281B9F
:101C2000390B4A0B5B0B04C016950795F794E794A4
:101C30008A95D2F7F701E05BFE4F8081281B3109BE
:101C400041095109C9011F910F91FF90EF9008952B
:101C5000DF92EF92FF920F931F93FC01E480F580D7
:101C600006811781D1808081823048F480E090E045
:101C7000A0E1B0E0E82AF92A0A2B1B2BA5C084308A
:101C800009F49FC0823021F4EE24FF24870105C0AF
:101C9000E114F1040105110519F4E0E0F0E096C04B
:101CA000628173819FEF623879070CF05BC022E894
:101CB0003FEF261B370B2A3131052CF020E030E0B6
:101CC00040E050E02AC0B801A701022E04C076957A
:101CD0006795579547950A94D2F781E090E0A0E088
:101CE000B0E004C0880F991FAA1FBB1F2A95D2F726
:101CF0000197A109B1098E219F21A023B12300974B
:101D0000A105B10521F081E090E0A0E0B0E09A01EA
:101D1000AB01282B392B4A2B5B2BDA01C9018F77BA
:101D20009070A070B07080349105A105B10539F4B0
:101D300027FF09C0205C3F4F4F4F5F4F04C0215C1D
:101D40003F4F4F4F5F4FE0E0F0E02030A0E03A0718
:101D5000A0E04A07A0E45A0710F0E1E0F0E07901C2
:101D60008A0127C06038710564F5FB01E158FF4F17
:101D7000D801C7018F779070A070B0708034910542
:101D8000A105B10539F4E7FE0DC080E490E0A0E0C4
:101D9000B0E004C08FE390E0A0E0B0E0E80EF91EF0
:101DA0000A1F1B1F17FF05C016950795F794E794A8
:101DB000319687E016950795F794E7948A95D1F7C1
:101DC00005C0EE24FF248701EFEFF0E06E2F67954A
:101DD00066276795902F9F77D794DD24D7948E2F11
:101DE0008695492F462B582F5D29B701CA011F91AF
:101DF0000F91FF90EF90DF900895FC01DB0140818F
:101E000051812281622F6F7770E0221F2227221FCB
:101E10009381892F880F822B282F30E0991F9927D3
:101E2000991F11969C93119721153105A9F541151C
:101E300051056105710511F482E037C082E89FEF1A
:101E400013969C938E9312979A01AB0167E0220F31
:101E5000331F441F551F6A95D1F783E08C930DC043
:101E6000220F331F441F551F12968D919C9113977B
:101E7000019713969C938E931297203080E0380739
:101E800080E0480780E4580758F314962D933D935B
:101E90004D935C93179708952F3F310579F44115C1
:101EA00051056105710519F484E08C93089564FF70
:101EB00003C081E08C9312C01C9210C02F57304099
:101EC00013963C932E93129783E08C9387E0440FF4
:101ED000551F661F771F8A95D1F7706414964D932E
:101EE0005D936D937C93179708952F923F924F9235
:101EF0005F926F927F928F929F92AF92BF92CF929A
:101F0000DF92EF92FF920F931F93DF93CF93CDB7A2
:101F1000DEB761970FB6F894DEBF0FBECDBF3C01B0
:101F20007F876E876A01FC0117821682838181FD9B
:101F300003C06FEF7FEF6FC39E012F5F3F4F398B61
:101F4000288BF3012381EE85FF8523FD859123FFF7
:101F50008191FF87EE87882309F45AC3853251F4B3
:101F6000EE85FF8523FD859123FF8191FF87EE8715
:101F7000853229F490E0B3010E949314E2CF982FA8
:101F800010E0882499241032B0F49B3269F09C321E
:101F900028F4903251F0933271F40BC09D3239F035
:101FA000903349F4116028C01260146025C0186095
:101FB00023C0106121C017FD2AC0892F80538A30A9
:101FC00078F416FF06C0FAE09F9E902C1124980E1C
:101FD00013C03AE0839E802C1124880E10620CC03E
:101FE0009E3221F416FD14C3106406C09C3611F411
:101FF000106802C0983659F4EE85FF8523FD95914F
:1020000023FF9191FF87EE87992309F0BCCF892F99
:102010008554833020F4812F8061905E07C0892F22
:102020008556833008F09FC1812F8F7E86FD02C0C8
:1020300076E0972E6FE3F62EF822953619F4F0E449
:10204000FF2A07C0963619F420E8F22A02C0911040
:102050009A94F7FE0AC03BE3391518F45CE3B52EF9
:1020600002C0B92CB39427E009C047E0491520F419
:10207000BB2447E0942EF7CF292DBB24C60104963C
:102080009D878C87F6016081718182819381AE0189
:102090004F5F5F4F0B2D0E94A5136C010981202E0D
:1020A000332400FF04C003FD02C01DE209C0F1FE9D
:1020B00002C01BE205C0F2FC02C010E001C010E249
:1020C000C1018C709070892BB9F1112311F483E058
:1020D00001C084E0881510F088240AC0881AF3FC37
:1020E00007C080E290E0B3010E9493148A94C9F77C
:1020F000112329F0812F90E0B3010E94931423FE55
:1021000003C00CE810E00EC000E910E00BC0E114C1
:10211000F10409F0805290E0B3010E9493140F5F24
:102120001F4F05C0EF2CFF24F0E1EF22FF24F80140
:102130008491882361F714C1F7FE12C0BC0C24FE01
:1021400004C08A81813309F4BA941B141CF0BB24A7
:10215000B3942DC0F8E0FB1550F538E0B32E27C03E
:10216000F6FC25C0892D90E08C159D054CF02CEFD8
:10217000C2162FEFD20624F030E8F32A01C09A9459
:10218000992049F0E2E0F0E0EC0FFD1FE90DF11DB0
:1021900080818033A1F3F7FE0AC0B92CB394892D56
:1021A00090E0C816D90614F0992401C09C18F7FCD9
:1021B00003C025E030E009C01C141D041CF021E020
:1021C00030E003C096012F5F3F4F112311F02F5FC6
:1021D0003F4F992029F0892D90E00196280F391F53
:1021E000882D90E02817390714F0882401C0821A3E
:1021F0004F2C5524C20189709070892B39F008C08A
:1022000080E290E0B3010E9493148A948820C1F781
:10221000112329F0812F90E0B3010E94931443FE13
:1022200007C008C080E390E0B3010E9493148A9431
:102230008820C1F7F7FE46C08601D7FE02C000E045
:1022400010E076010894E11CF11CE01AF10A41E06B
:1022500050E04C0F5D1FE40EF51E26014B1851088F
:10226000892D90E0AA24BB24A81AB90A5FEF0F3F7A
:10227000150729F48EE290E0B3010E949314C01672
:10228000D10634F0401651061CF4F701808101C0DC
:1022900080E3015010400894E11CF11C0A151B0555
:1022A0002CF090E0B3010E949314E0CF0C151D05B3
:1022B00039F49A81963318F4953311F424FE81E3AE
:1022C00090E04BC08A81813309F00F7E90E0B3012A
:1022D0000E9493149920A1F08EE290E0B3010E9435
:1022E000931412E0E1E0F0E0EC0FFD1FE10FF11DAF
:1022F0001F5F808190E0B3010E9493149A9491F73C
:1023000044FC03C085E690E002C085E490E0B301A0
:102310000E949314D7FC05C0C114D10441F404FFFA
:1023200006C0D094C194D108D3948DE201C08BE251
:1023300090E0B3010E94931480E305C08F5F26EF05
:102340003FEFC20ED31E3AE0C316D104BCF790E0B3
:10235000B3010E949314C601C096B3010E94931466
:10236000CC84DD8452C1933631F0933799F09335A4
:1023700009F059C023C0F601808189835E01089469
:10238000A11CB11C22E030E0C20ED31E21E0E22EDF
:10239000F12C12C0F601A080B18016FD03C06FEFD2
:1023A0007FEF02C0692D70E022E030E0C20ED31E44
:1023B000C5010E9488147C011F7713C0F601A0801C
:1023C000B18016FD03C06FEF7FEF02C0692D70E092
:1023D00022E030E0C20ED31EC5010E947D147C01B4
:1023E000106813FF07C01BC080E290E0B3010E9499
:1023F00093148A94882D90E0E816F906A8F30FC08C
:10240000F50117FD859117FF81915F0190E0B30100
:102410000E94931481108A940894E108F108E11451
:10242000F10471F7F2C0943611F0993689F517FF6F
:1024300008C0F601208131814281538184E090E01F
:102440000AC0F601808191819C01442737FD4095A7
:10245000542F82E090E0C80ED91E9FE6F92EF1229B
:1024600057FF09C050954095309521953F4F4F4FEC
:102470005F4F90E8F92ACA01B901AE014F5F5F4F83
:102480002AE030E00E94D114E82EE889EE1A41C01B
:10249000953721F41F7E2AE030E01CC0197F9F365B
:1024A00061F0903720F4983509F0B2C00FC0903732
:1024B00039F0983709F0ACC004C028E030E00AC019
:1024C000106114FD146020E130E004C014FD1660BA
:1024D00020E132E017FF08C0F6016081718182813E
:1024E000938144E050E008C0F60180819181BC01F5
:1024F00080E090E042E050E0C40ED51EAE014F5F98
:102500005F4F0E94D114E82E5889E51A8FE7F82E04
:10251000F122F6FE0BC08EEFF822E91438F4F4FE37
:1025200007C0F2FC05C09FEEF92202C01E2D01C0BB
:10253000192DF4FE0DC0FE01EE0DF11D80818033DA
:1025400019F4E9EEFE2208C01F5FF2FE05C003C0C9
:102550008F2D867809F01F5F0F2DF3FC14C0F0FE5D
:102560000FC0181510F09E2C0BC09E2C980C911AC1
:10257000182D06C080E290E0B3010E9493141F5F03
:102580001815C0F304C0181510F4811A01C088246E
:1025900004FF0FC080E390E0B3010E94931402FF98
:1025A0001DC001FD03C088E790E00EC088E590E003
:1025B0000BC0802F867891F001FF02C08BE201C032
:1025C00080E2F7FC8DE290E0B3010E94931406C014
:1025D00080E390E0B3010E9493149A94E914C0F34D
:1025E000EA94E1E0F0E0EC0FFD1FEE0DF11D8081BB
:1025F00090E0B3010E949314EE2091F706C080E2B0
:1026000090E0B3010E9493148A948820C1F799CC7A
:10261000F30166817781CB0161960FB6F894DEBF36
:102620000FBECDBFCF91DF911F910F91FF90EF9023
:10263000DF90CF90BF90AF909F908F907F906F90E2
:102640005F904F903F902F900895AA1BBB1B51E1C4
:1026500007C0AA1FBB1FA617B70710F0A61BB70B12
:10266000881F991F5A95A9F780959095BC01CD01B7
:10267000089597FB092E07260AD077FD04D0E5DFE1
:1026800006D000201AF4709561957F4F0895F6F7F3
:10269000909581959F4F0895A1E21A2EAA1BBB1B0E
:1026A000FD010DC0AA1FBB1FEE1FFF1FA217B3071E
:1026B000E407F50720F0A21BB30BE40BF50B661F34
:1026C000771F881F991F1A9469F7609570958095F8
:1026D00090959B01AC01BD01CF0108952F923F92CF
:1026E0004F925F926F927F928F929F92AF92BF9222
:1026F000CF92DF92EF92FF920F931F93CF93DF93CE
:10270000CDB7DEB7CA1BDB0B0FB6F894DEBF0FBE2A
:10271000CDBF09942A88398848885F846E847D8477
:102720008C849B84AA84B984C884DF80EE80FD8079
:102730000C811B81AA81B981CE0FD11D0FB6F894EF
:10274000DEBF0FBECDBFED010895283008F027E0B1
:102750003327DA01990F311D87FD916000966105DD
:10276000710539F432602E5F3D9330E32A95E1F72D
:1027700008959F3F30F080387105610509F03C5F96
:102780003C5F3D93913008F08068911DDF93CF93BB
:102790001F930F93FF92EF92192F987F9695E92F31
:1027A00096959695E90FFF27E251FF4F992733271A
:1027B000EE24FF24A701E70105900894079428F46C
:1027C000360FE71EF81E491F511D660F771F881F21
:1027D000991F0694A1F70590079428F4E70EF81EB8
:1027E000491F561FC11D770F881F991F661F06942A
:1027F000A1F70590079428F4F80E491F561FC71F2C
:10280000D11D880F991F661F771F0694A1F70590A9
:10281000079420F4490F561FC71FD81F990F661F32
:10282000771F881F0694A9F784911095177041F0BF
:10283000D695C79557954795F794E7941A95C1F79C
:10284000E4E9F0E0689415901591359165919591C2
:1028500005907FE27395E118F10A430B560BC90B03
:10286000D009C0F7E10CF11E431F561FC91FD01D30
:102870007EF4703311F48A95E6CFE894015030F07D
:10288000080F0AF40027021708F4202F2395022FBF
:102890007A3328F079E37D932A95E9F710C07D9388
:1028A0002A9589F606949795679537951795179405
:1028B000E118F10A430B560BC90BD00998F0239588
:1028C0007E9173957A3308F070E37C932013B8F708
:1028D0007E9170617D9330F0839571E37D9370E319
:1028E0002A95E1F71124EF90FF900F911F91CF915E
:1028F000DF91992787FD90950895FC01059061501F
:1029000070400110D8F7809590958E0F9F1F089505
:10291000FC016150704001900110D8F780959095AE
:102920008E0F9F1F08950F931F93CF93DF938C01FA
:10293000EB018B8181FF1BC082FF0DC02E813F8187
:102940008C819D812817390764F4E881F98101930E
:10295000F983E88306C0E885F985802F0995892BDE
:1029600031F48E819F8101969F838E8302C00FEF89
:102970001FEFC801DF91CF911F910F910895DF9351
:10298000CF93CDB7DEB7FE013596619171918091FD
:102990007C0690917D06AF010E94750FCF91DF916B
:1029A0000895FA01AA27283051F1203181F1E894E5
:1029B0006F936E7F6E5F7F4F8F4F9F4FAF4FB1E032
:1029C0003ED0B4E03CD0670F781F891F9A1FA11D2D
:1029D000680F791F8A1F911DA11D6A0F711D811D2E
:1029E000911DA11D20D009F468943F912AE0269FF3
:1029F00011243019305D3193DEF6CF010895462F52
:102A00004770405D4193B3E00FD0C9F7F6CF462F32
:102A10004F70405D4A3318F0495D31FD405241939B
:102A200002D0A9F7EACFB4E0A69597958795779558
:102A30006795BA95C9F700976105710508959B01DF
:102A4000AC010A2E06945795479537952795BA9568
:102A5000C9F7620F731F841F951FA01D0895F89476
:022A6000FFCFA6
:102A620041540041542B4254494E464F3F00415479
:102A72002B42545343414E00205B486954656368BE
:102A82004C6F6769635D202000536D61727420454D
:102A92002D4D657465722076310000000002000041
:102AA200000090090000000000000000000000008B
:102AB20000010202030303030404040404040404E3
:102AC20005050505050505050505050505050505B4
:102AD2000606060606060606060606060606060694
:102AE2000606060606060606060606060606060684
:102AF2000707070707070707070707070707070764
:102B02000707070707070707070707070707070753
:102B12000707070707070707070707070707070743
:102B22000707070707070707070707070707070733
:102B32000808080808080808080808080808080813
:102B42000808080808080808080808080808080803
:102B520008080808080808080808080808080808F3
:102B620008080808080808080808080808080808E3
:102B720008080808080808080808080808080808D3
:102B820008080808080808080808080808080808C3
:102B920008080808080808080808080808080808B3
:102BA20008080808080808080808080808080808A3
:00000001FF
